{
  "transactions": [
    {
      "hash": "0xb8eb3539138e7aec59431210d0b300f834cbcdd61bdd240a499b54a3c17130c1",
      "transactionType": "CALL",
      "contractName": "ERC1967Proxy",
      "contractAddress": "0x60512aeb641e960faaac7e2bfcb1819f993e7282",
      "function": null,
      "arguments": null,
      "transaction": {
        "from": "0xd7e38800201d6a42c408bf79d8723740c4e7f631",
        "to": "0x60512aeb641e960faaac7e2bfcb1819f993e7282",
        "gas": "0x23c23",
        "value": "0x0",
        "input": "0x2f2ff15d000000000000000000000000000000000000000000000000000000000000000000000000000000000000000007d274a68393e8b8a2ccf19a2ce4ba3518735253",
        "nonce": "0x4c0",
        "chainId": "0x38"
      },
      "additionalContracts": [],
      "isFixedGasLimit": false
    },
    {
      "hash": "0x2501d11dc82083f6b948a43a4e7087530b4b7bcdf17719457d5e4d6b034981b5",
      "transactionType": "CALL",
      "contractName": "ERC1967Proxy",
      "contractAddress": "0x60512aeb641e960faaac7e2bfcb1819f993e7282",
      "function": null,
      "arguments": null,
      "transaction": {
        "from": "0xd7e38800201d6a42c408bf79d8723740c4e7f631",
        "to": "0x60512aeb641e960faaac7e2bfcb1819f993e7282",
        "gas": "0x23e35",
        "value": "0x0",
        "input": "0x2f2ff15daf290d8680820aad922855f39b306097b20e28774d6c1ad35a20325630c3a02c0000000000000000000000008d388136d578dcd791d081c6042284ced6d9b0c6",
        "nonce": "0x4c1",
        "chainId": "0x38"
      },
      "additionalContracts": [],
      "isFixedGasLimit": false
    },
    {
      "hash": "0x31dc8dc36923a2442f07ebde50f2864a52e123a749b3c919cae255d3ef30ab27",
      "transactionType": "CALL",
      "contractName": "ERC1967Proxy",
      "contractAddress": "0x60512aeb641e960faaac7e2bfcb1819f993e7282",
      "function": null,
      "arguments": null,
      "transaction": {
        "from": "0xd7e38800201d6a42c408bf79d8723740c4e7f631",
        "to": "0x60512aeb641e960faaac7e2bfcb1819f993e7282",
        "gas": "0x11c24",
        "value": "0x0",
        "input": "0xd547741faf290d8680820aad922855f39b306097b20e28774d6c1ad35a20325630c3a02c000000000000000000000000d7e38800201d6a42c408bf79d8723740c4e7f631",
        "nonce": "0x4c2",
        "chainId": "0x38"
      },
      "additionalContracts": [],
      "isFixedGasLimit": false
    },
    {
      "hash": "0xf54522eae117d9c77eb97f2c3d7d022df5f8bb78ec18e104c9ee3222c679193d",
      "transactionType": "CALL",
      "contractName": "ERC1967Proxy",
      "contractAddress": "0x60512aeb641e960faaac7e2bfcb1819f993e7282",
      "function": null,
      "arguments": null,
      "transaction": {
        "from": "0xd7e38800201d6a42c408bf79d8723740c4e7f631",
        "to": "0x60512aeb641e960faaac7e2bfcb1819f993e7282",
        "gas": "0x111da",
        "value": "0x0",
        "input": "0xd547741f0000000000000000000000000000000000000000000000000000000000000000000000000000000000000000d7e38800201d6a42c408bf79d8723740c4e7f631",
        "nonce": "0x4c3",
        "chainId": "0x38"
      },
      "additionalContracts": [],
      "isFixedGasLimit": false
    },
    {
      "hash": "0x5e8cfd652e67a81225ff76b50deddfdd1b39ef440360025822f88222c8a31252",
      "transactionType": "CALL",
      "contractName": "ERC1967Proxy",
      "contractAddress": "0xc1aeebbfd8b1280e78d930c43700758f543f5fc6",
      "function": null,
      "arguments": null,
      "transaction": {
        "from": "0xd7e38800201d6a42c408bf79d8723740c4e7f631",
        "to": "0xc1aeebbfd8b1280e78d930c43700758f543f5fc6",
        "gas": "0x25e2b",
        "value": "0x0",
        "input": "0x2f2ff15d000000000000000000000000000000000000000000000000000000000000000000000000000000000000000007d274a68393e8b8a2ccf19a2ce4ba3518735253",
        "nonce": "0x4c4",
        "chainId": "0x38"
      },
      "additionalContracts": [],
      "isFixedGasLimit": false
    },
    {
      "hash": "0xbeea70b49ef06f959de1079f870c8dc70662f283c7490c09a42f8d7093b942a9",
      "transactionType": "CALL",
      "contractName": "ERC1967Proxy",
      "contractAddress": "0xc1aeebbfd8b1280e78d930c43700758f543f5fc6",
      "function": null,
      "arguments": null,
      "transaction": {
        "from": "0xd7e38800201d6a42c408bf79d8723740c4e7f631",
        "to": "0xc1aeebbfd8b1280e78d930c43700758f543f5fc6",
        "gas": "0x2605d",
        "value": "0x0",
        "input": "0x2f2ff15daf290d8680820aad922855f39b306097b20e28774d6c1ad35a20325630c3a02c0000000000000000000000008d388136d578dcd791d081c6042284ced6d9b0c6",
        "nonce": "0x4c5",
        "chainId": "0x38"
      },
      "additionalContracts": [],
      "isFixedGasLimit": false
    },
    {
      "hash": "0x90eb695ffd38445be47dacba6f27db68d370461882afdb72a14e8ef6037a3b7b",
      "transactionType": "CALL",
      "contractName": "ERC1967Proxy",
      "contractAddress": "0xc1aeebbfd8b1280e78d930c43700758f543f5fc6",
      "function": null,
      "arguments": null,
      "transaction": {
        "from": "0xd7e38800201d6a42c408bf79d8723740c4e7f631",
        "to": "0xc1aeebbfd8b1280e78d930c43700758f543f5fc6",
        "gas": "0x12c8c",
        "value": "0x0",
        "input": "0xd547741faf290d8680820aad922855f39b306097b20e28774d6c1ad35a20325630c3a02c000000000000000000000000d7e38800201d6a42c408bf79d8723740c4e7f631",
        "nonce": "0x4c6",
        "chainId": "0x38"
      },
      "additionalContracts": [],
      "isFixedGasLimit": false
    },
    {
      "hash": "0x99bc13351d3da94df895566afdeebd8eda34160d19dc952fdc50f75bdc24119b",
      "transactionType": "CALL",
      "contractName": "ERC1967Proxy",
      "contractAddress": "0xc1aeebbfd8b1280e78d930c43700758f543f5fc6",
      "function": null,
      "arguments": null,
      "transaction": {
        "from": "0xd7e38800201d6a42c408bf79d8723740c4e7f631",
        "to": "0xc1aeebbfd8b1280e78d930c43700758f543f5fc6",
        "gas": "0x1118f",
        "value": "0x0",
        "input": "0xd547741f0000000000000000000000000000000000000000000000000000000000000000000000000000000000000000d7e38800201d6a42c408bf79d8723740c4e7f631",
        "nonce": "0x4c7",
        "chainId": "0x38"
      },
      "additionalContracts": [],
      "isFixedGasLimit": false
    },
    {
      "hash": "0xb8387f16c2e67de6d0c847a02b838310c05ab743e19eaec50eef4834fa888034",
      "transactionType": "CALL",
      "contractName": null,
      "contractAddress": "0x82664f43676ffd81be2b472c5a2e2808952ecd56",
      "function": "grantRole(bytes32,address)",
      "arguments": [
        "0x0000000000000000000000000000000000000000000000000000000000000000",
        "0x07D274a68393E8b8a2CCf19A2ce4Ba3518735253"
      ],
      "transaction": {
        "from": "0xd7e38800201d6a42c408bf79d8723740c4e7f631",
        "to": "0x82664f43676ffd81be2b472c5a2e2808952ecd56",
        "gas": "0x23c23",
        "value": "0x0",
        "input": "0x2f2ff15d000000000000000000000000000000000000000000000000000000000000000000000000000000000000000007d274a68393e8b8a2ccf19a2ce4ba3518735253",
        "nonce": "0x4c8",
        "chainId": "0x38"
      },
      "additionalContracts": [],
      "isFixedGasLimit": false
    },
    {
      "hash": "0x4a35c2eb4ea829cd5277325e5921f9d9f5d536087bccd1ccc4425ace43e91064",
      "transactionType": "CALL",
      "contractName": null,
      "contractAddress": "0x82664f43676ffd81be2b472c5a2e2808952ecd56",
      "function": "grantRole(bytes32,address)",
      "arguments": [
        "0xaf290d8680820aad922855f39b306097b20e28774d6c1ad35a20325630c3a02c",
        "0x8d388136d578dCD791D081c6042284CED6d9B0c6"
      ],
      "transaction": {
        "from": "0xd7e38800201d6a42c408bf79d8723740c4e7f631",
        "to": "0x82664f43676ffd81be2b472c5a2e2808952ecd56",
        "gas": "0x23e35",
        "value": "0x0",
        "input": "0x2f2ff15daf290d8680820aad922855f39b306097b20e28774d6c1ad35a20325630c3a02c0000000000000000000000008d388136d578dcd791d081c6042284ced6d9b0c6",
        "nonce": "0x4c9",
        "chainId": "0x38"
      },
      "additionalContracts": [],
      "isFixedGasLimit": false
    },
    {
      "hash": "0x76e981708af7ae44770013b3c450888445e7d278a72d51a1e932dde45d878502",
      "transactionType": "CALL",
      "contractName": null,
      "contractAddress": "0x82664f43676ffd81be2b472c5a2e2808952ecd56",
      "function": "revokeRole(bytes32,address)",
      "arguments": [
        "0xaf290d8680820aad922855f39b306097b20e28774d6c1ad35a20325630c3a02c",
        "0xd7e38800201D6a42C408Bf79d8723740C4E7f631"
      ],
      "transaction": {
        "from": "0xd7e38800201d6a42c408bf79d8723740c4e7f631",
        "to": "0x82664f43676ffd81be2b472c5a2e2808952ecd56",
        "gas": "0x11c24",
        "value": "0x0",
        "input": "0xd547741faf290d8680820aad922855f39b306097b20e28774d6c1ad35a20325630c3a02c000000000000000000000000d7e38800201d6a42c408bf79d8723740c4e7f631",
        "nonce": "0x4ca",
        "chainId": "0x38"
      },
      "additionalContracts": [],
      "isFixedGasLimit": false
    },
    {
      "hash": "0xbecbeef0cd9de0257be13f2377e2124cfeb937447c47234d2e7aabbac44675a3",
      "transactionType": "CALL",
      "contractName": null,
      "contractAddress": "0x82664f43676ffd81be2b472c5a2e2808952ecd56",
      "function": "revokeRole(bytes32,address)",
      "arguments": [
        "0x0000000000000000000000000000000000000000000000000000000000000000",
        "0xd7e38800201D6a42C408Bf79d8723740C4E7f631"
      ],
      "transaction": {
        "from": "0xd7e38800201d6a42c408bf79d8723740c4e7f631",
        "to": "0x82664f43676ffd81be2b472c5a2e2808952ecd56",
        "gas": "0x111da",
        "value": "0x0",
        "input": "0xd547741f0000000000000000000000000000000000000000000000000000000000000000000000000000000000000000d7e38800201d6a42c408bf79d8723740c4e7f631",
        "nonce": "0x4cb",
        "chainId": "0x38"
      },
      "additionalContracts": [],
      "isFixedGasLimit": false
    },
    {
      "hash": "0xb10c8508d7bfe7f939a12bfa7d1675cb6ad3126b95f8625d1c0fe743bada740b",
      "transactionType": "CALL",
      "contractName": null,
      "contractAddress": "0x69d15b7a232244eb0fdded2a3e038589e5c50105",
      "function": "grantRole(bytes32,address)",
      "arguments": [
        "0x0000000000000000000000000000000000000000000000000000000000000000",
        "0x07D274a68393E8b8a2CCf19A2ce4Ba3518735253"
      ],
      "transaction": {
        "from": "0xd7e38800201d6a42c408bf79d8723740c4e7f631",
        "to": "0x69d15b7a232244eb0fdded2a3e038589e5c50105",
        "gas": "0x25e2b",
        "value": "0x0",
        "input": "0x2f2ff15d000000000000000000000000000000000000000000000000000000000000000000000000000000000000000007d274a68393e8b8a2ccf19a2ce4ba3518735253",
        "nonce": "0x4cc",
        "chainId": "0x38"
      },
      "additionalContracts": [],
      "isFixedGasLimit": false
    },
    {
      "hash": "0x46c268295b89d82ed714ef937f9b8998e498dc7b1d79313ca4fc9214890ee260",
      "transactionType": "CALL",
      "contractName": null,
      "contractAddress": "0x69d15b7a232244eb0fdded2a3e038589e5c50105",
      "function": "grantRole(bytes32,address)",
      "arguments": [
        "0xaf290d8680820aad922855f39b306097b20e28774d6c1ad35a20325630c3a02c",
        "0x8d388136d578dCD791D081c6042284CED6d9B0c6"
      ],
      "transaction": {
        "from": "0xd7e38800201d6a42c408bf79d8723740c4e7f631",
        "to": "0x69d15b7a232244eb0fdded2a3e038589e5c50105",
        "gas": "0x2605d",
        "value": "0x0",
        "input": "0x2f2ff15daf290d8680820aad922855f39b306097b20e28774d6c1ad35a20325630c3a02c0000000000000000000000008d388136d578dcd791d081c6042284ced6d9b0c6",
        "nonce": "0x4cd",
        "chainId": "0x38"
      },
      "additionalContracts": [],
      "isFixedGasLimit": false
    },
    {
      "hash": "0x1bd760dd303dea58f25722b37bcdf8edd5ce2f822a164e37aff6087362edbbc2",
      "transactionType": "CALL",
      "contractName": null,
      "contractAddress": "0x69d15b7a232244eb0fdded2a3e038589e5c50105",
      "function": "revokeRole(bytes32,address)",
      "arguments": [
        "0xaf290d8680820aad922855f39b306097b20e28774d6c1ad35a20325630c3a02c",
        "0xd7e38800201D6a42C408Bf79d8723740C4E7f631"
      ],
      "transaction": {
        "from": "0xd7e38800201d6a42c408bf79d8723740c4e7f631",
        "to": "0x69d15b7a232244eb0fdded2a3e038589e5c50105",
        "gas": "0x12c8c",
        "value": "0x0",
        "input": "0xd547741faf290d8680820aad922855f39b306097b20e28774d6c1ad35a20325630c3a02c000000000000000000000000d7e38800201d6a42c408bf79d8723740c4e7f631",
        "nonce": "0x4ce",
        "chainId": "0x38"
      },
      "additionalContracts": [],
      "isFixedGasLimit": false
    },
    {
      "hash": "0xfd127bf9769664110439eb10a21d004ac02cf3a1e3e93f328c498a6976744ce7",
      "transactionType": "CALL",
      "contractName": null,
      "contractAddress": "0x69d15b7a232244eb0fdded2a3e038589e5c50105",
      "function": "revokeRole(bytes32,address)",
      "arguments": [
        "0x0000000000000000000000000000000000000000000000000000000000000000",
        "0xd7e38800201D6a42C408Bf79d8723740C4E7f631"
      ],
      "transaction": {
        "from": "0xd7e38800201d6a42c408bf79d8723740c4e7f631",
        "to": "0x69d15b7a232244eb0fdded2a3e038589e5c50105",
        "gas": "0x1118f",
        "value": "0x0",
        "input": "0xd547741f0000000000000000000000000000000000000000000000000000000000000000000000000000000000000000d7e38800201d6a42c408bf79d8723740c4e7f631",
        "nonce": "0x4cf",
        "chainId": "0x38"
      },
      "additionalContracts": [],
      "isFixedGasLimit": false
    }
  ],
  "receipts": [
    {
      "status": "0x1",
      "cumulativeGasUsed": "0x89df9a",
      "logs": [
        {
          "address": "0x60512aeb641e960faaac7e2bfcb1819f993e7282",
          "topics": [
            "0x2f8788117e7eff1d82e926ec794901d17c78024a50270940304540a733656f0d",
            "0x0000000000000000000000000000000000000000000000000000000000000000",
            "0x00000000000000000000000007d274a68393e8b8a2ccf19a2ce4ba3518735253",
            "0x000000000000000000000000d7e38800201d6a42c408bf79d8723740c4e7f631"
          ],
          "data": "0x",
          "blockHash": "0xc1b6a8d91d725139fef56e98b6c952ccf63cd36f504c47756baf67e8c1fb61de",
          "blockNumber": "0x422b6ea",
          "blockTimestamp": "0x69251a89",
          "transactionHash": "0xb8eb3539138e7aec59431210d0b300f834cbcdd61bdd240a499b54a3c17130c1",
          "transactionIndex": "0x4b",
          "logIndex": "0xfe",
          "removed": false
        }
      ],
      "logsBloom": "0x00000004000000000000000000000000000000000000000000000000000000000000000000000000000000000000000000000000000000000000000000000000000000000000000000000000002000000800000000000000000000000000000000000004020000000000000000000800000000000000000000000000000000000000000000000000000000000000000000200000000000000000000000040000000000000000000000000000000000000000000000000000001000000000000000000000001000000000000000000000000000000000000110000000000020000080000000000000000000000000000000000000000000000002000000000000",
      "type": "0x2",
      "transactionHash": "0xb8eb3539138e7aec59431210d0b300f834cbcdd61bdd240a499b54a3c17130c1",
      "transactionIndex": "0x4b",
      "blockHash": "0xc1b6a8d91d725139fef56e98b6c952ccf63cd36f504c47756baf67e8c1fb61de",
      "blockNumber": "0x422b6ea",
      "gasUsed": "0x19e38",
      "effectiveGasPrice": "0x2faf080",
      "from": "0xd7e38800201d6a42c408bf79d8723740c4e7f631",
      "to": "0x60512aeb641e960faaac7e2bfcb1819f993e7282",
      "contractAddress": null
    },
    {
      "status": "0x1",
      "cumulativeGasUsed": "0x8b7f52",
      "logs": [
        {
          "address": "0x60512aeb641e960faaac7e2bfcb1819f993e7282",
          "topics": [
            "0x2f8788117e7eff1d82e926ec794901d17c78024a50270940304540a733656f0d",
            "0xaf290d8680820aad922855f39b306097b20e28774d6c1ad35a20325630c3a02c",
            "0x0000000000000000000000008d388136d578dcd791d081c6042284ced6d9b0c6",
            "0x000000000000000000000000d7e38800201d6a42c408bf79d8723740c4e7f631"
          ],
          "data": "0x",
          "blockHash": "0xc1b6a8d91d725139fef56e98b6c952ccf63cd36f504c47756baf67e8c1fb61de",
          "blockNumber": "0x422b6ea",
          "blockTimestamp": "0x69251a89",
          "transactionHash": "0x2501d11dc82083f6b948a43a4e7087530b4b7bcdf17719457d5e4d6b034981b5",
          "transactionIndex": "0x4c",
          "logIndex": "0xff",
          "removed": false
        }
      ],
      "logsBloom": "0x00000004000000000000000000000000000000000000000000000000000000004000000000000000000000000000000000000000000000000000000800000000000000000000000000000000002000008800000000000000000000000000000000000000000000000000000000000000000000000000000000000000004000000000000000000000000000000000000000000000000000000000000000040000000000000000000000000000000000000000000000000000001000000000000000000000001000000000000000010000000002000000000100000000000000000080000000000000000000000000000000000000000000000002000000000000",
      "type": "0x2",
      "transactionHash": "0x2501d11dc82083f6b948a43a4e7087530b4b7bcdf17719457d5e4d6b034981b5",
      "transactionIndex": "0x4c",
      "blockHash": "0xc1b6a8d91d725139fef56e98b6c952ccf63cd36f504c47756baf67e8c1fb61de",
      "blockNumber": "0x422b6ea",
      "gasUsed": "0x19fb8",
      "effectiveGasPrice": "0x2faf080",
      "from": "0xd7e38800201d6a42c408bf79d8723740c4e7f631",
      "to": "0x60512aeb641e960faaac7e2bfcb1819f993e7282",
      "contractAddress": null
    },
    {
      "status": "0x1",
      "cumulativeGasUsed": "0x8c4d09",
      "logs": [
        {
          "address": "0x60512aeb641e960faaac7e2bfcb1819f993e7282",
          "topics": [
            "0xf6391f5c32d9c69d2a47ea670b442974b53935d1edc7fd64eb21e047a839171b",
            "0xaf290d8680820aad922855f39b306097b20e28774d6c1ad35a20325630c3a02c",
            "0x000000000000000000000000d7e38800201d6a42c408bf79d8723740c4e7f631",
            "0x000000000000000000000000d7e38800201d6a42c408bf79d8723740c4e7f631"
          ],
          "data": "0x",
          "blockHash": "0xc1b6a8d91d725139fef56e98b6c952ccf63cd36f504c47756baf67e8c1fb61de",
          "blockNumber": "0x422b6ea",
          "blockTimestamp": "0x69251a89",
          "transactionHash": "0x31dc8dc36923a2442f07ebde50f2864a52e123a749b3c919cae255d3ef30ab27",
          "transactionIndex": "0x4d",
          "logIndex": "0x100",
          "removed": false
        }
      ],
      "logsBloom": "0x00000000000000000000000000000000000000000000000000000000000000000000000000000000000000000000000000200000000000000000000800000000000000000000000000000000002000008800000000000000000000000000000040000000000000000000000000000000000000000000000000000000004000000000000040000000000000000000000000000000000000000000000000040000000000000000000000000000000000000000000000000000000000000000000000000000001000000000000000000000000000000000000000000000000000000080000000000000000000000000000000000000000000000002000000000000",
      "type": "0x2",
      "transactionHash": "0x31dc8dc36923a2442f07ebde50f2864a52e123a749b3c919cae255d3ef30ab27",
      "transactionIndex": "0x4d",
      "blockHash": "0xc1b6a8d91d725139fef56e98b6c952ccf63cd36f504c47756baf67e8c1fb61de",
      "blockNumber": "0x422b6ea",
      "gasUsed": "0xcdb7",
      "effectiveGasPrice": "0x2faf080",
      "from": "0xd7e38800201d6a42c408bf79d8723740c4e7f631",
      "to": "0x60512aeb641e960faaac7e2bfcb1819f993e7282",
      "contractAddress": null
    },
    {
      "status": "0x1",
      "cumulativeGasUsed": "0x8d134d",
      "logs": [
        {
          "address": "0x60512aeb641e960faaac7e2bfcb1819f993e7282",
          "topics": [
            "0xf6391f5c32d9c69d2a47ea670b442974b53935d1edc7fd64eb21e047a839171b",
            "0x0000000000000000000000000000000000000000000000000000000000000000",
            "0x000000000000000000000000d7e38800201d6a42c408bf79d8723740c4e7f631",
            "0x000000000000000000000000d7e38800201d6a42c408bf79d8723740c4e7f631"
          ],
          "data": "0x",
          "blockHash": "0xc1b6a8d91d725139fef56e98b6c952ccf63cd36f504c47756baf67e8c1fb61de",
          "blockNumber": "0x422b6ea",
          "blockTimestamp": "0x69251a89",
          "transactionHash": "0xf54522eae117d9c77eb97f2c3d7d022df5f8bb78ec18e104c9ee3222c679193d",
          "transactionIndex": "0x4e",
          "logIndex": "0x101",
          "removed": false
        }
      ],
      "logsBloom": "0x00000000000000000000000000000000000000000000000000000000000000000000000000000000000000000000000000200000000000000000000000000000000000000000000000000000002000000800000000000000000000000000000040000000020000000000000000000800000000000000000000000000000000000000000040000000000000000000000000000000000000000000000000040000000000000000000000000000000000000000000000000000000000000000000000000000001000000000000000000000000000000000000000000000000020000080000000000000000000000000000000000000000000000002000000000000",
      "type": "0x2",
      "transactionHash": "0xf54522eae117d9c77eb97f2c3d7d022df5f8bb78ec18e104c9ee3222c679193d",
      "transactionIndex": "0x4e",
      "blockHash": "0xc1b6a8d91d725139fef56e98b6c952ccf63cd36f504c47756baf67e8c1fb61de",
      "blockNumber": "0x422b6ea",
      "gasUsed": "0xc644",
      "effectiveGasPrice": "0x2faf080",
      "from": "0xd7e38800201d6a42c408bf79d8723740c4e7f631",
      "to": "0x60512aeb641e960faaac7e2bfcb1819f993e7282",
      "contractAddress": null
    },
    {
      "status": "0x1",
      "cumulativeGasUsed": "0x8eb1c7",
      "logs": [
        {
          "address": "0xc1aeebbfd8b1280e78d930c43700758f543f5fc6",
          "topics": [
            "0x2f8788117e7eff1d82e926ec794901d17c78024a50270940304540a733656f0d",
            "0x0000000000000000000000000000000000000000000000000000000000000000",
            "0x00000000000000000000000007d274a68393e8b8a2ccf19a2ce4ba3518735253",
            "0x000000000000000000000000d7e38800201d6a42c408bf79d8723740c4e7f631"
          ],
          "data": "0x",
          "blockHash": "0xc1b6a8d91d725139fef56e98b6c952ccf63cd36f504c47756baf67e8c1fb61de",
          "blockNumber": "0x422b6ea",
          "blockTimestamp": "0x69251a89",
          "transactionHash": "0x5e8cfd652e67a81225ff76b50deddfdd1b39ef440360025822f88222c8a31252",
          "transactionIndex": "0x4f",
          "logIndex": "0x102",
          "removed": false
        }
      ],
      "logsBloom": "0x00000004000000000000000000000000000000000000000000000000000000000000000000000200000000000000000000000000000000000000000000000000000000000000000004000000002000000000000000000000000000000000000000000004020000000000000000000800000000000000000000000000000000000000000000000000000000000000000000200000800000000000000000040000000000000000000000000000000000000000000000000000001000000000000000000000000000000000000000000000000000000000000110000000000020000080000000000000000000000000000000000000000000000000000000000000",
      "type": "0x2",
      "transactionHash": "0x5e8cfd652e67a81225ff76b50deddfdd1b39ef440360025822f88222c8a31252",
      "transactionIndex": "0x4f",
      "blockHash": "0xc1b6a8d91d725139fef56e98b6c952ccf63cd36f504c47756baf67e8c1fb61de",
      "blockNumber": "0x422b6ea",
      "gasUsed": "0x19e7a",
      "effectiveGasPrice": "0x2faf080",
      "from": "0xd7e38800201d6a42c408bf79d8723740c4e7f631",
      "to": "0xc1aeebbfd8b1280e78d930c43700758f543f5fc6",
      "contractAddress": null
    },
    {
      "status": "0x1",
      "cumulativeGasUsed": "0x9051c1",
      "logs": [
        {
          "address": "0xc1aeebbfd8b1280e78d930c43700758f543f5fc6",
          "topics": [
            "0x2f8788117e7eff1d82e926ec794901d17c78024a50270940304540a733656f0d",
            "0xaf290d8680820aad922855f39b306097b20e28774d6c1ad35a20325630c3a02c",
            "0x0000000000000000000000008d388136d578dcd791d081c6042284ced6d9b0c6",
            "0x000000000000000000000000d7e38800201d6a42c408bf79d8723740c4e7f631"
          ],
          "data": "0x",
          "blockHash": "0xc1b6a8d91d725139fef56e98b6c952ccf63cd36f504c47756baf67e8c1fb61de",
          "blockNumber": "0x422b6ea",
          "blockTimestamp": "0x69251a89",
          "transactionHash": "0xbeea70b49ef06f959de1079f870c8dc70662f283c7490c09a42f8d7093b942a9",
          "transactionIndex": "0x50",
          "logIndex": "0x103",
          "removed": false
        }
      ],
      "logsBloom": "0x00000004000000000000000000000000000000000000000000000000000000004000000000000200000000000000000000000000000000000000000800000000000000000000000004000000002000008000000000000000000000000000000000000000000000000000000000000000000000000000000000000000004000000000000000000000000000000000000000000000800000000000000000040000000000000000000000000000000000000000000000000000001000000000000000000000000000000000000000010000000002000000000100000000000000000080000000000000000000000000000000000000000000000000000000000000",
      "type": "0x2",
      "transactionHash": "0xbeea70b49ef06f959de1079f870c8dc70662f283c7490c09a42f8d7093b942a9",
      "transactionIndex": "0x50",
      "blockHash": "0xc1b6a8d91d725139fef56e98b6c952ccf63cd36f504c47756baf67e8c1fb61de",
      "blockNumber": "0x422b6ea",
      "gasUsed": "0x19ffa",
      "effectiveGasPrice": "0x2faf080",
      "from": "0xd7e38800201d6a42c408bf79d8723740c4e7f631",
      "to": "0xc1aeebbfd8b1280e78d930c43700758f543f5fc6",
      "contractAddress": null
    },
    {
      "status": "0x1",
      "cumulativeGasUsed": "0x911f42",
      "logs": [
        {
          "address": "0xc1aeebbfd8b1280e78d930c43700758f543f5fc6",
          "topics": [
            "0xf6391f5c32d9c69d2a47ea670b442974b53935d1edc7fd64eb21e047a839171b",
            "0xaf290d8680820aad922855f39b306097b20e28774d6c1ad35a20325630c3a02c",
            "0x000000000000000000000000d7e38800201d6a42c408bf79d8723740c4e7f631",
            "0x000000000000000000000000d7e38800201d6a42c408bf79d8723740c4e7f631"
          ],
          "data": "0x",
          "blockHash": "0xc1b6a8d91d725139fef56e98b6c952ccf63cd36f504c47756baf67e8c1fb61de",
          "blockNumber": "0x422b6ea",
          "blockTimestamp": "0x69251a89",
          "transactionHash": "0x90eb695ffd38445be47dacba6f27db68d370461882afdb72a14e8ef6037a3b7b",
          "transactionIndex": "0x51",
          "logIndex": "0x104",
          "removed": false
        }
      ],
      "logsBloom": "0x00000000000000000000000000000000000000000000000000000000000000000000000000000200000000000000000000200000000000000000000800000000000000000000000004000000002000008000000000000000000000000000000040000000000000000000000000000000000000000000000000000000004000000000000040000000000000000000000000000000800000000000000000040000000000000000000000000000000000000000000000000000000000000000000000000000000000000000000000000000000000000000000000000000000000000080000000000000000000000000000000000000000000000000000000000000",
      "type": "0x2",
      "transactionHash": "0x90eb695ffd38445be47dacba6f27db68d370461882afdb72a14e8ef6037a3b7b",
      "transactionIndex": "0x51",
      "blockHash": "0xc1b6a8d91d725139fef56e98b6c952ccf63cd36f504c47756baf67e8c1fb61de",
      "blockNumber": "0x422b6ea",
      "gasUsed": "0xcd81",
      "effectiveGasPrice": "0x2faf080",
      "from": "0xd7e38800201d6a42c408bf79d8723740c4e7f631",
      "to": "0xc1aeebbfd8b1280e78d930c43700758f543f5fc6",
      "contractAddress": null
    },
    {
      "status": "0x1",
      "cumulativeGasUsed": "0x91e550",
      "logs": [
        {
          "address": "0xc1aeebbfd8b1280e78d930c43700758f543f5fc6",
          "topics": [
            "0xf6391f5c32d9c69d2a47ea670b442974b53935d1edc7fd64eb21e047a839171b",
            "0x0000000000000000000000000000000000000000000000000000000000000000",
            "0x000000000000000000000000d7e38800201d6a42c408bf79d8723740c4e7f631",
            "0x000000000000000000000000d7e38800201d6a42c408bf79d8723740c4e7f631"
          ],
          "data": "0x",
          "blockHash": "0xc1b6a8d91d725139fef56e98b6c952ccf63cd36f504c47756baf67e8c1fb61de",
          "blockNumber": "0x422b6ea",
          "blockTimestamp": "0x69251a89",
          "transactionHash": "0x99bc13351d3da94df895566afdeebd8eda34160d19dc952fdc50f75bdc24119b",
          "transactionIndex": "0x52",
          "logIndex": "0x105",
          "removed": false
        }
      ],
      "logsBloom": "0x00000000000000000000000000000000000000000000000000000000000000000000000000000200000000000000000000200000000000000000000000000000000000000000000004000000002000000000000000000000000000000000000040000000020000000000000000000800000000000000000000000000000000000000000040000000000000000000000000000000800000000000000000040000000000000000000000000000000000000000000000000000000000000000000000000000000000000000000000000000000000000000000000000000000020000080000000000000000000000000000000000000000000000000000000000000",
      "type": "0x2",
      "transactionHash": "0x99bc13351d3da94df895566afdeebd8eda34160d19dc952fdc50f75bdc24119b",
      "transactionIndex": "0x52",
      "blockHash": "0xc1b6a8d91d725139fef56e98b6c952ccf63cd36f504c47756baf67e8c1fb61de",
      "blockNumber": "0x422b6ea",
      "gasUsed": "0xc60e",
      "effectiveGasPrice": "0x2faf080",
      "from": "0xd7e38800201d6a42c408bf79d8723740c4e7f631",
      "to": "0xc1aeebbfd8b1280e78d930c43700758f543f5fc6",
      "contractAddress": null
    },
    {
      "status": "0x1",
      "cumulativeGasUsed": "0x938388",
      "logs": [
        {
          "address": "0x82664f43676ffd81be2b472c5a2e2808952ecd56",
          "topics": [
            "0x2f8788117e7eff1d82e926ec794901d17c78024a50270940304540a733656f0d",
            "0x0000000000000000000000000000000000000000000000000000000000000000",
            "0x00000000000000000000000007d274a68393e8b8a2ccf19a2ce4ba3518735253",
            "0x000000000000000000000000d7e38800201d6a42c408bf79d8723740c4e7f631"
          ],
          "data": "0x",
          "blockHash": "0xc1b6a8d91d725139fef56e98b6c952ccf63cd36f504c47756baf67e8c1fb61de",
          "blockNumber": "0x422b6ea",
          "blockTimestamp": "0x69251a89",
          "transactionHash": "0xb8387f16c2e67de6d0c847a02b838310c05ab743e19eaec50eef4834fa888034",
          "transactionIndex": "0x53",
          "logIndex": "0x106",
          "removed": false
        }
      ],
      "logsBloom": "0x00000004000000000000000000000000000000000000000000000000000000000000000000000000000000000000000000000000000000000000000000000000000000000000000000000000002000000000000000000000000000000000000000000004020000000000000000000800000000000000000000000000000000000000000000000002000000000000000000200000000000000000000000040800000000000000000000000000000000000000000000200000001000000000000000000000000000000000000000000000000000000000000110000000000020000080000000000000000000000000000000000000000000000000000000000000",
      "type": "0x2",
      "transactionHash": "0xb8387f16c2e67de6d0c847a02b838310c05ab743e19eaec50eef4834fa888034",
      "transactionIndex": "0x53",
      "blockHash": "0xc1b6a8d91d725139fef56e98b6c952ccf63cd36f504c47756baf67e8c1fb61de",
      "blockNumber": "0x422b6ea",
      "gasUsed": "0x19e38",
      "effectiveGasPrice": "0x2faf080",
      "from": "0xd7e38800201d6a42c408bf79d8723740c4e7f631",
      "to": "0x82664f43676ffd81be2b472c5a2e2808952ecd56",
      "contractAddress": null
    },
    {
      "status": "0x1",
      "cumulativeGasUsed": "0x964b07",
      "logs": [
        {
          "address": "0x82664f43676ffd81be2b472c5a2e2808952ecd56",
          "topics": [
            "0x2f8788117e7eff1d82e926ec794901d17c78024a50270940304540a733656f0d",
            "0xaf290d8680820aad922855f39b306097b20e28774d6c1ad35a20325630c3a02c",
            "0x0000000000000000000000008d388136d578dcd791d081c6042284ced6d9b0c6",
            "0x000000000000000000000000d7e38800201d6a42c408bf79d8723740c4e7f631"
          ],
          "data": "0x",
          "blockHash": "0xc1b6a8d91d725139fef56e98b6c952ccf63cd36f504c47756baf67e8c1fb61de",
          "blockNumber": "0x422b6ea",
          "blockTimestamp": "0x69251a89",
          "transactionHash": "0x4a35c2eb4ea829cd5277325e5921f9d9f5d536087bccd1ccc4425ace43e91064",
          "transactionIndex": "0x55",
          "logIndex": "0x108",
          "removed": false
        }
      ],
      "logsBloom": "0x00000004000000000000000000000000000000000000000000000000000000004000000000000000000000000000000000000000000000000000000800000000000000000000000000000000002000008000000000000000000000000000000000000000000000000000000000000000000000000000000000000000004000000000000000000002000000000000000000000000000000000000000000040800000000000000000000000000000000000000000000200000001000000000000000000000000000000000000000010000000002000000000100000000000000000080000000000000000000000000000000000000000000000000000000000000",
      "type": "0x2",
      "transactionHash": "0x4a35c2eb4ea829cd5277325e5921f9d9f5d536087bccd1ccc4425ace43e91064",
      "transactionIndex": "0x55",
      "blockHash": "0xc1b6a8d91d725139fef56e98b6c952ccf63cd36f504c47756baf67e8c1fb61de",
      "blockNumber": "0x422b6ea",
      "gasUsed": "0x19fb8",
      "effectiveGasPrice": "0x2faf080",
      "from": "0xd7e38800201d6a42c408bf79d8723740c4e7f631",
      "to": "0x82664f43676ffd81be2b472c5a2e2808952ecd56",
      "contractAddress": null
    },
    {
      "status": "0x1",
      "cumulativeGasUsed": "0x9718be",
      "logs": [
        {
          "address": "0x82664f43676ffd81be2b472c5a2e2808952ecd56",
          "topics": [
            "0xf6391f5c32d9c69d2a47ea670b442974b53935d1edc7fd64eb21e047a839171b",
            "0xaf290d8680820aad922855f39b306097b20e28774d6c1ad35a20325630c3a02c",
            "0x000000000000000000000000d7e38800201d6a42c408bf79d8723740c4e7f631",
            "0x000000000000000000000000d7e38800201d6a42c408bf79d8723740c4e7f631"
          ],
          "data": "0x",
          "blockHash": "0xc1b6a8d91d725139fef56e98b6c952ccf63cd36f504c47756baf67e8c1fb61de",
          "blockNumber": "0x422b6ea",
          "blockTimestamp": "0x69251a89",
          "transactionHash": "0x76e981708af7ae44770013b3c450888445e7d278a72d51a1e932dde45d878502",
          "transactionIndex": "0x56",
          "logIndex": "0x109",
          "removed": false
        }
      ],
      "logsBloom": "0x00000000000000000000000000000000000000000000000000000000000000000000000000000000000000000000000000200000000000000000000800000000000000000000000000000000002000008000000000000000000000000000000040000000000000000000000000000000000000000000000000000000004000000000000040000002000000000000000000000000000000000000000000040800000000000000000000000000000000000000000000200000000000000000000000000000000000000000000000000000000000000000000000000000000000000080000000000000000000000000000000000000000000000000000000000000",
      "type": "0x2",
      "transactionHash": "0x76e981708af7ae44770013b3c450888445e7d278a72d51a1e932dde45d878502",
      "transactionIndex": "0x56",
      "blockHash": "0xc1b6a8d91d725139fef56e98b6c952ccf63cd36f504c47756baf67e8c1fb61de",
      "blockNumber": "0x422b6ea",
      "gasUsed": "0xcdb7",
      "effectiveGasPrice": "0x2faf080",
      "from": "0xd7e38800201d6a42c408bf79d8723740c4e7f631",
      "to": "0x82664f43676ffd81be2b472c5a2e2808952ecd56",
      "contractAddress": null
    },
    {
      "status": "0x1",
      "cumulativeGasUsed": "0x97df02",
      "logs": [
        {
          "address": "0x82664f43676ffd81be2b472c5a2e2808952ecd56",
          "topics": [
            "0xf6391f5c32d9c69d2a47ea670b442974b53935d1edc7fd64eb21e047a839171b",
            "0x0000000000000000000000000000000000000000000000000000000000000000",
            "0x000000000000000000000000d7e38800201d6a42c408bf79d8723740c4e7f631",
            "0x000000000000000000000000d7e38800201d6a42c408bf79d8723740c4e7f631"
          ],
          "data": "0x",
          "blockHash": "0xc1b6a8d91d725139fef56e98b6c952ccf63cd36f504c47756baf67e8c1fb61de",
          "blockNumber": "0x422b6ea",
          "blockTimestamp": "0x69251a89",
          "transactionHash": "0xbecbeef0cd9de0257be13f2377e2124cfeb937447c47234d2e7aabbac44675a3",
          "transactionIndex": "0x57",
          "logIndex": "0x10a",
          "removed": false
        }
      ],
      "logsBloom": "0x00000000000000000000000000000000000000000000000000000000000000000000000000000000000000000000000000200000000000000000000000000000000000000000000000000000002000000000000000000000000000000000000040000000020000000000000000000800000000000000000000000000000000000000000040000002000000000000000000000000000000000000000000040800000000000000000000000000000000000000000000200000000000000000000000000000000000000000000000000000000000000000000000000000000020000080000000000000000000000000000000000000000000000000000000000000",
      "type": "0x2",
      "transactionHash": "0xbecbeef0cd9de0257be13f2377e2124cfeb937447c47234d2e7aabbac44675a3",
      "transactionIndex": "0x57",
      "blockHash": "0xc1b6a8d91d725139fef56e98b6c952ccf63cd36f504c47756baf67e8c1fb61de",
      "blockNumber": "0x422b6ea",
      "gasUsed": "0xc644",
      "effectiveGasPrice": "0x2faf080",
      "from": "0xd7e38800201d6a42c408bf79d8723740c4e7f631",
      "to": "0x82664f43676ffd81be2b472c5a2e2808952ecd56",
      "contractAddress": null
    },
    {
      "status": "0x1",
      "cumulativeGasUsed": "0x997d7c",
      "logs": [
        {
          "address": "0x69d15b7a232244eb0fdded2a3e038589e5c50105",
          "topics": [
            "0x2f8788117e7eff1d82e926ec794901d17c78024a50270940304540a733656f0d",
            "0x0000000000000000000000000000000000000000000000000000000000000000",
            "0x00000000000000000000000007d274a68393e8b8a2ccf19a2ce4ba3518735253",
            "0x000000000000000000000000d7e38800201d6a42c408bf79d8723740c4e7f631"
          ],
          "data": "0x",
          "blockHash": "0xc1b6a8d91d725139fef56e98b6c952ccf63cd36f504c47756baf67e8c1fb61de",
          "blockNumber": "0x422b6ea",
          "blockTimestamp": "0x69251a89",
          "transactionHash": "0xb10c8508d7bfe7f939a12bfa7d1675cb6ad3126b95f8625d1c0fe743bada740b",
          "transactionIndex": "0x58",
          "logIndex": "0x10b",
          "removed": false
        }
      ],
      "logsBloom": "0x00000004000000000000000000000000000000000000000000000000000000000000000000000000000000000000000000000000000000000000000000000000000000000000000000000010002000000000000000000000000000000000000000000004020000000000000000000800000000000000000000000000000004000000000000000000000000000000000000200000000000000000000000040000000000000000000000000000000000000000000000000000001002000000000000000000000000000000000000000000000000000000000110000000000020000080000000000000000000000000000000000000000000000000000000000000",
      "type": "0x2",
      "transactionHash": "0xb10c8508d7bfe7f939a12bfa7d1675cb6ad3126b95f8625d1c0fe743bada740b",
      "transactionIndex": "0x58",
      "blockHash": "0xc1b6a8d91d725139fef56e98b6c952ccf63cd36f504c47756baf67e8c1fb61de",
      "blockNumber": "0x422b6ea",
      "gasUsed": "0x19e7a",
      "effectiveGasPrice": "0x2faf080",
      "from": "0xd7e38800201d6a42c408bf79d8723740c4e7f631",
      "to": "0x69d15b7a232244eb0fdded2a3e038589e5c50105",
      "contractAddress": null
    },
    {
      "status": "0x1",
      "cumulativeGasUsed": "0x9b1d76",
      "logs": [
        {
          "address": "0x69d15b7a232244eb0fdded2a3e038589e5c50105",
          "topics": [
            "0x2f8788117e7eff1d82e926ec794901d17c78024a50270940304540a733656f0d",
            "0xaf290d8680820aad922855f39b306097b20e28774d6c1ad35a20325630c3a02c",
            "0x0000000000000000000000008d388136d578dcd791d081c6042284ced6d9b0c6",
            "0x000000000000000000000000d7e38800201d6a42c408bf79d8723740c4e7f631"
          ],
          "data": "0x",
          "blockHash": "0xc1b6a8d91d725139fef56e98b6c952ccf63cd36f504c47756baf67e8c1fb61de",
          "blockNumber": "0x422b6ea",
          "blockTimestamp": "0x69251a89",
          "transactionHash": "0x46c268295b89d82ed714ef937f9b8998e498dc7b1d79313ca4fc9214890ee260",
          "transactionIndex": "0x59",
          "logIndex": "0x10c",
          "removed": false
        }
      ],
      "logsBloom": "0x00000004000000000000000000000000000000000000000000000000000000004000000000000000000000000000000000000000000000000000000800000000000000000000000000000010002000008000000000000000000000000000000000000000000000000000000000000000000000000000000000000000004004000000000000000000000000000000000000000000000000000000000000040000000000000000000000000000000000000000000000000000001002000000000000000000000000000000000000010000000002000000000100000000000000000080000000000000000000000000000000000000000000000000000000000000",
      "type": "0x2",
      "transactionHash": "0x46c268295b89d82ed714ef937f9b8998e498dc7b1d79313ca4fc9214890ee260",
      "transactionIndex": "0x59",
      "blockHash": "0xc1b6a8d91d725139fef56e98b6c952ccf63cd36f504c47756baf67e8c1fb61de",
      "blockNumber": "0x422b6ea",
      "gasUsed": "0x19ffa",
      "effectiveGasPrice": "0x2faf080",
      "from": "0xd7e38800201d6a42c408bf79d8723740c4e7f631",
      "to": "0x69d15b7a232244eb0fdded2a3e038589e5c50105",
      "contractAddress": null
    },
    {
      "status": "0x1",
      "cumulativeGasUsed": "0x9c5efe",
      "logs": [
        {
          "address": "0x69d15b7a232244eb0fdded2a3e038589e5c50105",
          "topics": [
            "0xf6391f5c32d9c69d2a47ea670b442974b53935d1edc7fd64eb21e047a839171b",
            "0xaf290d8680820aad922855f39b306097b20e28774d6c1ad35a20325630c3a02c",
            "0x000000000000000000000000d7e38800201d6a42c408bf79d8723740c4e7f631",
            "0x000000000000000000000000d7e38800201d6a42c408bf79d8723740c4e7f631"
          ],
          "data": "0x",
          "blockHash": "0xc1b6a8d91d725139fef56e98b6c952ccf63cd36f504c47756baf67e8c1fb61de",
          "blockNumber": "0x422b6ea",
          "blockTimestamp": "0x69251a89",
          "transactionHash": "0x1bd760dd303dea58f25722b37bcdf8edd5ce2f822a164e37aff6087362edbbc2",
          "transactionIndex": "0x5b",
          "logIndex": "0x10e",
          "removed": false
        }
      ],
      "logsBloom": "0x00000000000000000000000000000000000000000000000000000000000000000000000000000000000000000000000000200000000000000000000800000000000000000000000000000010002000008000000000000000000000000000000040000000000000000000000000000000000000000000000000000000004004000000000040000000000000000000000000000000000000000000000000040000000000000000000000000000000000000000000000000000000002000000000000000000000000000000000000000000000000000000000000000000000000000080000000000000000000000000000000000000000000000000000000000000",
      "type": "0x2",
      "transactionHash": "0x1bd760dd303dea58f25722b37bcdf8edd5ce2f822a164e37aff6087362edbbc2",
      "transactionIndex": "0x5b",
      "blockHash": "0xc1b6a8d91d725139fef56e98b6c952ccf63cd36f504c47756baf67e8c1fb61de",
      "blockNumber": "0x422b6ea",
      "gasUsed": "0xcd81",
      "effectiveGasPrice": "0x2faf080",
      "from": "0xd7e38800201d6a42c408bf79d8723740c4e7f631",
      "to": "0x69d15b7a232244eb0fdded2a3e038589e5c50105",
      "contractAddress": null
    },
    {
      "status": "0x1",
      "cumulativeGasUsed": "0x9d250c",
      "logs": [
        {
          "address": "0x69d15b7a232244eb0fdded2a3e038589e5c50105",
          "topics": [
            "0xf6391f5c32d9c69d2a47ea670b442974b53935d1edc7fd64eb21e047a839171b",
            "0x0000000000000000000000000000000000000000000000000000000000000000",
            "0x000000000000000000000000d7e38800201d6a42c408bf79d8723740c4e7f631",
            "0x000000000000000000000000d7e38800201d6a42c408bf79d8723740c4e7f631"
          ],
          "data": "0x",
          "blockHash": "0xc1b6a8d91d725139fef56e98b6c952ccf63cd36f504c47756baf67e8c1fb61de",
          "blockNumber": "0x422b6ea",
          "blockTimestamp": "0x69251a89",
          "transactionHash": "0xfd127bf9769664110439eb10a21d004ac02cf3a1e3e93f328c498a6976744ce7",
          "transactionIndex": "0x5c",
          "logIndex": "0x10f",
          "removed": false
        }
      ],
      "logsBloom": "0x00000000000000000000000000000000000000000000000000000000000000000000000000000000000000000000000000200000000000000000000000000000000000000000000000000010002000000000000000000000000000000000000040000000020000000000000000000800000000000000000000000000000004000000000040000000000000000000000000000000000000000000000000040000000000000000000000000000000000000000000000000000000002000000000000000000000000000000000000000000000000000000000000000000000020000080000000000000000000000000000000000000000000000000000000000000",
      "type": "0x2",
      "transactionHash": "0xfd127bf9769664110439eb10a21d004ac02cf3a1e3e93f328c498a6976744ce7",
      "transactionIndex": "0x5c",
      "blockHash": "0xc1b6a8d91d725139fef56e98b6c952ccf63cd36f504c47756baf67e8c1fb61de",
      "blockNumber": "0x422b6ea",
      "gasUsed": "0xc60e",
      "effectiveGasPrice": "0x2faf080",
      "from": "0xd7e38800201d6a42c408bf79d8723740c4e7f631",
      "to": "0x69d15b7a232244eb0fdded2a3e038589e5c50105",
      "contractAddress": null
    }
  ],
  "libraries": [],
  "pending": [],
  "returns": {},
  "timestamp": 1764039307504,
  "chain": 56,
  "commit": "c80318a"
}