{
  "transactions": [
    {
      "hash": "0xea756447a92959283a5adb304a2ce86e8dcde0d4658a5ebd63c262ff69bfa47b",
      "transactionType": "CALL",
      "contractName": "ERC1967Proxy",
      "contractAddress": "0x60512aeb641e960faaac7e2bfcb1819f993e7282",
      "function": null,
      "arguments": null,
      "transaction": {
        "from": "0xd7e38800201d6a42c408bf79d8723740c4e7f631",
        "to": "0x60512aeb641e960faaac7e2bfcb1819f993e7282",
        "gas": "0x12c54",
        "value": "0x0",
        "input": "0xefdcd9740000000000000000000000002e2eed557fab1d2e11fea1e1a23ff8f1b23551f3",
        "nonce": "0x4b8",
        "chainId": "0x38"
      },
      "additionalContracts": [],
      "isFixedGasLimit": false
    },
    {
      "hash": "0x21898ce3008346a8087f35ee8e68df75a6f3d30b2ab727df9e91f0823f3145b4",
      "transactionType": "CALL",
      "contractName": "ERC1967Proxy",
      "contractAddress": "0x60512aeb641e960faaac7e2bfcb1819f993e7282",
      "function": null,
      "arguments": null,
      "transaction": {
        "from": "0xd7e38800201d6a42c408bf79d8723740c4e7f631",
        "to": "0x60512aeb641e960faaac7e2bfcb1819f993e7282",
        "gas": "0x11996",
        "value": "0x0",
        "input": "0x096015b000000000000000000000000000000000000000000000000000038d7ea4c68000",
        "nonce": "0x4b9",
        "chainId": "0x38"
      },
      "additionalContracts": [],
      "isFixedGasLimit": false
    },
    {
      "hash": "0x51ad7764f7dbfb675451af7ff44adce958771e63a30f39f73532c1e2df38366b",
      "transactionType": "CALL",
      "contractName": null,
      "contractAddress": "0xc1aeebbfd8b1280e78d930c43700758f543f5fc6",
      "function": "setFeeReceiver(address)",
      "arguments": [
        "0x8d388136d578dCD791D081c6042284CED6d9B0c6"
      ],
      "transaction": {
        "from": "0xd7e38800201d6a42c408bf79d8723740c4e7f631",
        "to": "0xc1aeebbfd8b1280e78d930c43700758f543f5fc6",
        "gas": "0x12b99",
        "value": "0x0",
        "input": "0xefdcd9740000000000000000000000008d388136d578dcd791d081c6042284ced6d9b0c6",
        "nonce": "0x4ba",
        "chainId": "0x38"
      },
      "additionalContracts": [],
      "isFixedGasLimit": false
    },
    {
      "hash": "0x6b9c3f9e6fbe71f88ba7547f842deae49ba2ca1591bbf8910137825325fefa9d",
      "transactionType": "CALL",
      "contractName": null,
      "contractAddress": "0xc1aeebbfd8b1280e78d930c43700758f543f5fc6",
      "function": "setFeeRate(uint256)",
      "arguments": [
        "50000000000000000"
      ],
      "transaction": {
        "from": "0xd7e38800201d6a42c408bf79d8723740c4e7f631",
        "to": "0xc1aeebbfd8b1280e78d930c43700758f543f5fc6",
        "gas": "0x129c2",
        "value": "0x0",
        "input": "0x45596e2e00000000000000000000000000000000000000000000000000b1a2bc2ec50000",
        "nonce": "0x4bb",
        "chainId": "0x38"
      },
      "additionalContracts": [],
      "isFixedGasLimit": false
    },
    {
      "hash": "0x7cbfc9ec39953e9a2d5284e29121ebda4413e9df784d1f707366c8ab52f63c2c",
      "transactionType": "CALL",
      "contractName": null,
      "contractAddress": "0x82664f43676ffd81be2b472c5a2e2808952ecd56",
      "function": "setFeeReceiver(address)",
      "arguments": [
        "0x2E2Eed557FAb1d2E11fEA1E1a23FF8f1b23551f3"
      ],
      "transaction": {
        "from": "0xd7e38800201d6a42c408bf79d8723740c4e7f631",
        "to": "0x82664f43676ffd81be2b472c5a2e2808952ecd56",
        "gas": "0x12c54",
        "value": "0x0",
        "input": "0xefdcd9740000000000000000000000002e2eed557fab1d2e11fea1e1a23ff8f1b23551f3",
        "nonce": "0x4bc",
        "chainId": "0x38"
      },
      "additionalContracts": [],
      "isFixedGasLimit": false
    },
    {
      "hash": "0x5921f99403c7531cb3391128033abb0fb13491fd68bdbbe75ce3837371ca4b91",
      "transactionType": "CALL",
      "contractName": null,
      "contractAddress": "0x82664f43676ffd81be2b472c5a2e2808952ecd56",
      "function": "setWithdrawFeeRate(uint256)",
      "arguments": [
        "1000000000000000"
      ],
      "transaction": {
        "from": "0xd7e38800201d6a42c408bf79d8723740c4e7f631",
        "to": "0x82664f43676ffd81be2b472c5a2e2808952ecd56",
        "gas": "0x11996",
        "value": "0x0",
        "input": "0x096015b000000000000000000000000000000000000000000000000000038d7ea4c68000",
        "nonce": "0x4bd",
        "chainId": "0x38"
      },
      "additionalContracts": [],
      "isFixedGasLimit": false
    },
    {
      "hash": "0x660bba7bc54a2cec4b3d0439d96db72a63b1699996f5f4c984943d1baf636003",
      "transactionType": "CALL",
      "contractName": null,
      "contractAddress": "0x69d15b7a232244eb0fdded2a3e038589e5c50105",
      "function": "setFeeReceiver(address)",
      "arguments": [
        "0x8d388136d578dCD791D081c6042284CED6d9B0c6"
      ],
      "transaction": {
        "from": "0xd7e38800201d6a42c408bf79d8723740c4e7f631",
        "to": "0x69d15b7a232244eb0fdded2a3e038589e5c50105",
        "gas": "0x12b99",
        "value": "0x0",
        "input": "0xefdcd9740000000000000000000000008d388136d578dcd791d081c6042284ced6d9b0c6",
        "nonce": "0x4be",
        "chainId": "0x38"
      },
      "additionalContracts": [],
      "isFixedGasLimit": false
    },
    {
      "hash": "0x2c7eabd62993c6c813a558279518c61029afc3ca7f2ca66d49b8b8e48899898b",
      "transactionType": "CALL",
      "contractName": null,
      "contractAddress": "0x69d15b7a232244eb0fdded2a3e038589e5c50105",
      "function": "setFeeRate(uint256)",
      "arguments": [
        "50000000000000000"
      ],
      "transaction": {
        "from": "0xd7e38800201d6a42c408bf79d8723740c4e7f631",
        "to": "0x69d15b7a232244eb0fdded2a3e038589e5c50105",
        "gas": "0x129c2",
        "value": "0x0",
        "input": "0x45596e2e00000000000000000000000000000000000000000000000000b1a2bc2ec50000",
        "nonce": "0x4bf",
        "chainId": "0x38"
      },
      "additionalContracts": [],
      "isFixedGasLimit": false
    }
  ],
  "receipts": [
    {
      "status": "0x1",
      "cumulativeGasUsed": "0xe59618",
      "logs": [
        {
          "address": "0x60512aeb641e960faaac7e2bfcb1819f993e7282",
          "topics": [
            "0xffb40bfdfd246e95f543d08d9713c339f1d90fa9265e39b4f562f9011d7c919f"
          ],
          "data": "0x0000000000000000000000002e2eed557fab1d2e11fea1e1a23ff8f1b23551f3",
          "blockHash": "0x06947301d0c28e8aa3f170b90bffcc8e6d26bc086c421d5871427044360e870d",
          "blockNumber": "0x4213c7d",
          "transactionHash": "0xea756447a92959283a5adb304a2ce86e8dcde0d4658a5ebd63c262ff69bfa47b",
          "transactionIndex": "0x7c",
          "logIndex": "0x1a7",
          "removed": false
        }
      ],
      "logsBloom": "0x00000000000000000000000000000000000000000000000000000000000000000000000000000000000000000000000000000000000000000000080000000000000000000000000000000000000000000800000000000000000000000000000000000000000000000000000000000000000200000000000000000000000000000000000800000000000000000000000000000000000000000000000000000000000000000000000000000000000000000000000000000000000000000000000000000000001000000000000000000000000000000000000000000000000000000000000000000000000000000000000000000000000000000002000000000000",
      "type": "0x2",
      "transactionHash": "0xea756447a92959283a5adb304a2ce86e8dcde0d4658a5ebd63c262ff69bfa47b",
      "transactionIndex": "0x7c",
      "blockHash": "0x06947301d0c28e8aa3f170b90bffcc8e6d26bc086c421d5871427044360e870d",
      "blockNumber": "0x4213c7d",
      "gasUsed": "0xcd5b",
      "effectiveGasPrice": "0x2faf080",
      "from": "0xd7e38800201d6a42c408bf79d8723740c4e7f631",
      "to": "0x60512aeb641e960faaac7e2bfcb1819f993e7282",
      "contractAddress": null
    },
    {
      "status": "0x1",
      "cumulativeGasUsed": "0xe661f6",
      "logs": [
        {
          "address": "0x60512aeb641e960faaac7e2bfcb1819f993e7282",
          "topics": [
            "0xcb2a45476ee4bb089f23575e002268eacd380c059b2963f71e6a6e74d9a1a6b2"
          ],
          "data": "0x00000000000000000000000000000000000000000000000000038d7ea4c68000",
          "blockHash": "0x06947301d0c28e8aa3f170b90bffcc8e6d26bc086c421d5871427044360e870d",
          "blockNumber": "0x4213c7d",
          "transactionHash": "0x21898ce3008346a8087f35ee8e68df75a6f3d30b2ab727df9e91f0823f3145b4",
          "transactionIndex": "0x7d",
          "logIndex": "0x1a8",
          "removed": false
        }
      ],
      "logsBloom": "0x00000000000000000000000000000000000000000000080000000000000000000000000000000000000000000000000000000000000040000000000000000000000000000000000000000000000000000800000000000000000000000000000000000000000000000000000000000000000000000000000000000000000000000000000000000000000000000000000000000000000000000000000000000000000000000000000000000000000040000000000000000000000000000000000000000000001000000000000000000000000000000000000000000000000000000000000000000000000000000000000000000000000000000002000000000000",
      "type": "0x2",
      "transactionHash": "0x21898ce3008346a8087f35ee8e68df75a6f3d30b2ab727df9e91f0823f3145b4",
      "transactionIndex": "0x7d",
      "blockHash": "0x06947301d0c28e8aa3f170b90bffcc8e6d26bc086c421d5871427044360e870d",
      "blockNumber": "0x4213c7d",
      "gasUsed": "0xcbde",
      "effectiveGasPrice": "0x2faf080",
      "from": "0xd7e38800201d6a42c408bf79d8723740c4e7f631",
      "to": "0x60512aeb641e960faaac7e2bfcb1819f993e7282",
      "contractAddress": null
    },
    {
      "status": "0x1",
      "cumulativeGasUsed": "0xe72ed1",
      "logs": [
        {
          "address": "0xc1aeebbfd8b1280e78d930c43700758f543f5fc6",
          "topics": [
            "0xffb40bfdfd246e95f543d08d9713c339f1d90fa9265e39b4f562f9011d7c919f"
          ],
          "data": "0x0000000000000000000000008d388136d578dcd791d081c6042284ced6d9b0c6",
          "blockHash": "0x06947301d0c28e8aa3f170b90bffcc8e6d26bc086c421d5871427044360e870d",
          "blockNumber": "0x4213c7d",
          "transactionHash": "0x51ad7764f7dbfb675451af7ff44adce958771e63a30f39f73532c1e2df38366b",
          "transactionIndex": "0x7e",
          "logIndex": "0x1a9",
          "removed": false
        }
      ],
      "logsBloom": "0x00000000000000000000000000000000000000000000000000000000000000000000000000000200000000000000000000000000000000000000080000000000000000000000000004000000000000000000000000000000000000000000000000000000000000000000000000000000000200000000000000000000000000000000000800000000000000000000000000000000800000000000000000000000000000000000000000000000000000000000000000000000000000000000000000000000000000000000000000000000000000000000000000000000000000000000000000000000000000000000000000000000000000000000000000000000",
      "type": "0x2",
      "transactionHash": "0x51ad7764f7dbfb675451af7ff44adce958771e63a30f39f73532c1e2df38366b",
      "transactionIndex": "0x7e",
      "blockHash": "0x06947301d0c28e8aa3f170b90bffcc8e6d26bc086c421d5871427044360e870d",
      "blockNumber": "0x4213c7d",
      "gasUsed": "0xccdb",
      "effectiveGasPrice": "0x2faf080",
      "from": "0xd7e38800201d6a42c408bf79d8723740c4e7f631",
      "to": "0xc1aeebbfd8b1280e78d930c43700758f543f5fc6",
      "contractAddress": null
    },
    {
      "status": "0x1",
      "cumulativeGasUsed": "0xe7fa6a",
      "logs": [
        {
          "address": "0xc1aeebbfd8b1280e78d930c43700758f543f5fc6",
          "topics": [
            "0x6717373928cccf59cc9912055cfa8db86e7085b95c94c15862b121114aa333be"
          ],
          "data": "0x00000000000000000000000000000000000000000000000000b1a2bc2ec50000",
          "blockHash": "0x06947301d0c28e8aa3f170b90bffcc8e6d26bc086c421d5871427044360e870d",
          "blockNumber": "0x4213c7d",
          "blockTimestamp": "0x6923feac",
          "transactionHash": "0x6b9c3f9e6fbe71f88ba7547f842deae49ba2ca1591bbf8910137825325fefa9d",
          "transactionIndex": "0x7f",
          "logIndex": "0x1aa",
          "removed": false
        }
      ],
      "logsBloom": "0x00000000000000000000000000000000000000000000000000000000000000000000000000000200000000000000000000000000000000000000000000000000000000000000000004000000000000000000000000000000000000000000000000000000000000000000000000000000000000000000000000000000000000000000000000000000000000000000000000000000800000000000000000000000008000000000000000000000000000000000000000000000010000000000000000000000000000000000000000000000000000000000000000000000000000000000000000000000000000000000000000000000080000000000000000000000",
      "type": "0x2",
      "transactionHash": "0x6b9c3f9e6fbe71f88ba7547f842deae49ba2ca1591bbf8910137825325fefa9d",
      "transactionIndex": "0x7f",
      "blockHash": "0x06947301d0c28e8aa3f170b90bffcc8e6d26bc086c421d5871427044360e870d",
      "blockNumber": "0x4213c7d",
      "gasUsed": "0xcb99",
      "effectiveGasPrice": "0x2faf080",
      "from": "0xd7e38800201d6a42c408bf79d8723740c4e7f631",
      "to": "0xc1aeebbfd8b1280e78d930c43700758f543f5fc6",
      "contractAddress": null
    },
    {
      "status": "0x1",
      "cumulativeGasUsed": "0xe8c7c5",
      "logs": [
        {
          "address": "0x82664f43676ffd81be2b472c5a2e2808952ecd56",
          "topics": [
            "0xffb40bfdfd246e95f543d08d9713c339f1d90fa9265e39b4f562f9011d7c919f"
          ],
          "data": "0x0000000000000000000000002e2eed557fab1d2e11fea1e1a23ff8f1b23551f3",
          "blockHash": "0x06947301d0c28e8aa3f170b90bffcc8e6d26bc086c421d5871427044360e870d",
          "blockNumber": "0x4213c7d",
          "transactionHash": "0x7cbfc9ec39953e9a2d5284e29121ebda4413e9df784d1f707366c8ab52f63c2c",
          "transactionIndex": "0x80",
          "logIndex": "0x1ab",
          "removed": false
        }
      ],
      "logsBloom": "0x00000000000000000000000000000000000000000000000000000000000000000000000000000000000000000000000000000000000000000000080000000000000000000000000000000000000000000000000000000000000000000000000000000000000000000000000000000000000200000000000000000000000000000000000800000002000000000000000000000000000000000000000000000800000000000000000000000000000000000000000000200000000000000000000000000000000000000000000000000000000000000000000000000000000000000000000000000000000000000000000000000000000000000000000000000000",
      "type": "0x2",
      "transactionHash": "0x7cbfc9ec39953e9a2d5284e29121ebda4413e9df784d1f707366c8ab52f63c2c",
      "transactionIndex": "0x80",
      "blockHash": "0x06947301d0c28e8aa3f170b90bffcc8e6d26bc086c421d5871427044360e870d",
      "blockNumber": "0x4213c7d",
      "gasUsed": "0xcd5b",
      "effectiveGasPrice": "0x2faf080",
      "from": "0xd7e38800201d6a42c408bf79d8723740c4e7f631",
      "to": "0x82664f43676ffd81be2b472c5a2e2808952ecd56",
      "contractAddress": null
    },
    {
      "status": "0x1",
      "cumulativeGasUsed": "0xe993a3",
      "logs": [
        {
          "address": "0x82664f43676ffd81be2b472c5a2e2808952ecd56",
          "topics": [
            "0xcb2a45476ee4bb089f23575e002268eacd380c059b2963f71e6a6e74d9a1a6b2"
          ],
          "data": "0x00000000000000000000000000000000000000000000000000038d7ea4c68000",
          "blockHash": "0x06947301d0c28e8aa3f170b90bffcc8e6d26bc086c421d5871427044360e870d",
          "blockNumber": "0x4213c7d",
          "blockTimestamp": "0x6923feac",
          "transactionHash": "0x5921f99403c7531cb3391128033abb0fb13491fd68bdbbe75ce3837371ca4b91",
          "transactionIndex": "0x81",
          "logIndex": "0x1ac",
          "removed": false
        }
      ],
      "logsBloom": "0x00000000000000000000000000000000000000000000080000000000000000000000000000000000000000000000000000000000000040000000000000000000000000000000000000000000000000000000000000000000000000000000000000000000000000000000000000000000000000000000000000000000000000000000000000000002000000000000000000000000000000000000000000000800000000000000000000000000000040000000000000200000000000000000000000000000000000000000000000000000000000000000000000000000000000000000000000000000000000000000000000000000000000000000000000000000",
      "type": "0x2",
      "transactionHash": "0x5921f99403c7531cb3391128033abb0fb13491fd68bdbbe75ce3837371ca4b91",
      "transactionIndex": "0x81",
      "blockHash": "0x06947301d0c28e8aa3f170b90bffcc8e6d26bc086c421d5871427044360e870d",
      "blockNumber": "0x4213c7d",
      "gasUsed": "0xcbde",
      "effectiveGasPrice": "0x2faf080",
      "from": "0xd7e38800201d6a42c408bf79d8723740c4e7f631",
      "to": "0x82664f43676ffd81be2b472c5a2e2808952ecd56",
      "contractAddress": null
    },
    {
      "status": "0x1",
      "cumulativeGasUsed": "0xea607e",
      "logs": [
        {
          "address": "0x69d15b7a232244eb0fdded2a3e038589e5c50105",
          "topics": [
            "0xffb40bfdfd246e95f543d08d9713c339f1d90fa9265e39b4f562f9011d7c919f"
          ],
          "data": "0x0000000000000000000000008d388136d578dcd791d081c6042284ced6d9b0c6",
          "blockHash": "0x06947301d0c28e8aa3f170b90bffcc8e6d26bc086c421d5871427044360e870d",
          "blockNumber": "0x4213c7d",
          "transactionHash": "0x660bba7bc54a2cec4b3d0439d96db72a63b1699996f5f4c984943d1baf636003",
          "transactionIndex": "0x82",
          "logIndex": "0x1ad",
          "removed": false
        }
      ],
      "logsBloom": "0x00000000000000000000000000000000000000000000000000000000000000000000000000000000000000000000000000000000000000000000080000000000000000000000000000000010000000000000000000000000000000000000000000000000000000000000000000000000000200000000000000000000000004000000000800000000000000000000000000000000000000000000000000000000000000000000000000000000000000000000000000000000000002000000000000000000000000000000000000000000000000000000000000000000000000000000000000000000000000000000000000000000000000000000000000000000",
      "type": "0x2",
      "transactionHash": "0x660bba7bc54a2cec4b3d0439d96db72a63b1699996f5f4c984943d1baf636003",
      "transactionIndex": "0x82",
      "blockHash": "0x06947301d0c28e8aa3f170b90bffcc8e6d26bc086c421d5871427044360e870d",
      "blockNumber": "0x4213c7d",
      "gasUsed": "0xccdb",
      "effectiveGasPrice": "0x2faf080",
      "from": "0xd7e38800201d6a42c408bf79d8723740c4e7f631",
      "to": "0x69d15b7a232244eb0fdded2a3e038589e5c50105",
      "contractAddress": null
    },
    {
      "status": "0x1",
      "cumulativeGasUsed": "0xeb2c17",
      "logs": [
        {
          "address": "0x69d15b7a232244eb0fdded2a3e038589e5c50105",
          "topics": [
            "0x6717373928cccf59cc9912055cfa8db86e7085b95c94c15862b121114aa333be"
          ],
          "data": "0x00000000000000000000000000000000000000000000000000b1a2bc2ec50000",
          "blockHash": "0x06947301d0c28e8aa3f170b90bffcc8e6d26bc086c421d5871427044360e870d",
          "blockNumber": "0x4213c7d",
          "transactionHash": "0x2c7eabd62993c6c813a558279518c61029afc3ca7f2ca66d49b8b8e48899898b",
          "transactionIndex": "0x83",
          "logIndex": "0x1ae",
          "removed": false
        }
      ],
      "logsBloom": "0x00000000000000000000000000000000000000000000000000000000000000000000000000000000000000000000000000000000000000000000000000000000000000000000000000000010000000000000000000000000000000000000000000000000000000000000000000000000000000000000000000000000000004000000000000000000000000000000000000000000000000000000000000000000008000000000000000000000000000000000000000000000010002000000000000000000000000000000000000000000000000000000000000000000000000000000000000000000000000000000000000000000080000000000000000000000",
      "type": "0x2",
      "transactionHash": "0x2c7eabd62993c6c813a558279518c61029afc3ca7f2ca66d49b8b8e48899898b",
      "transactionIndex": "0x83",
      "blockHash": "0x06947301d0c28e8aa3f170b90bffcc8e6d26bc086c421d5871427044360e870d",
      "blockNumber": "0x4213c7d",
      "gasUsed": "0xcb99",
      "effectiveGasPrice": "0x2faf080",
      "from": "0xd7e38800201d6a42c408bf79d8723740c4e7f631",
      "to": "0x69d15b7a232244eb0fdded2a3e038589e5c50105",
      "contractAddress": null
    }
  ],
  "libraries": [],
  "pending": [],
  "returns": {},
  "timestamp": 1763966637904,
  "chain": 56,
  "commit": "c80318a"
}